:100000000C9462000C948A000C948A000C948A0070
:100010000C948A000C948A000C948A000C948A0038
:100020000C948A000C948A000C948A000C943B0A6D
:100030000C948A000C948A000C948A000C948A0018
:100040000C94F1090C948A000C94BF090C94990942
:100050000C948A000C948A000C948A000C948A00F8
:100060000C94F70A0C948A0000000000240027007A
:100070002A0000000000250028002B0000000008D6
:10008000000201000003040700000000000000005F
:1000900000000000230026002900040404040404D6
:1000A0000404020202020202030303030303010227
:1000B00004081020408001020408102001020408F6
:1000C00010205B0C11241FBECFEFD8E0DEBFCDBFE8
:1000D00011E0A0E0B1E0E8E0F6E202C005900D9288
:1000E000AC3AB107D9F723E0ACEAB1E001C01D9208
:1000F000AD36B207E1F710E0C2E6D0E004C02197C8
:10010000FE010E94FC12C136D107C9F70E94150DED
:100110000C9402130C940000CF92DF92EF92FF92A6
:10012000CF93DF93B0916103A0E08111AB2F809159
:10013000620390E0880F991FAC0140575F4FC09059
:100140006703D0906803E0906903F0906A0330E0A1
:1001500020E0FA01C591D491E881B90190E080E0F6
:10016000EB23EA130AC02F5F3F4F6C157D058E0508
:100170009F0578F36FEF7FEFCB01DF91CF91FF9079
:10018000EF90DF90CF90089508950895AF92BF92B9
:10019000CF92DF92EF92FF920F931F93CF93DF9353
:1001A0006C017B018B01040F151FEB015E01AE1882
:1001B000BF08C017D10759F06991D601ED91FC91A4
:1001C0000190F081E02DC6010995892B79F7C501D1
:1001D000DF91CF911F910F91FF90EF90DF90CF9023
:1001E000BF90AF900895FC01538D448D252F30E0D2
:1001F000842F90E0821B930B541710F0CF96089534
:1002000001970895FC01918D828D981761F0A28D60
:10021000AE0FBF2FB11D5D968C91928D9F5F9F7326
:10022000928F90E008958FEF9FEF0895FC01918DDC
:10023000828D981731F0828DE80FF11D858D90E049
:1002400008958FEF9FEF0895FC01918D228D892FE6
:1002500090E0805C9F4F821B91098F7399270895CE
:100260008AE792E00E94240121E0892B09F420E032
:10027000822F089580E090E0892B29F00E943001C0
:1002800081110C9400000895FC01A48DA80FB92FD2
:10029000B11DA35ABF4F2C91848D90E001968F73AE
:1002A0009927848FA689B7892C93A089B1898C91CD
:1002B000837080648C93938D848D981306C002881C
:1002C000F389E02D80818F7D80830895EF92FF92E6
:1002D0000F931F93CF93DF93EC0181E0888F9B8D69
:1002E0008C8D98131AC0E889F989808185FF15C023
:1002F0009FB7F894EE89FF896083E889F989808146
:100300008370806480839FBF81E090E0DF91CF9114
:100310001F910F91FF90EF900895F62E0B8D10E036
:100320000F5F1F4F0F731127E02E8C8D8E110CC0A5
:100330000FB607FCFACFE889F989808185FFF5CFF0
:10034000CE010E944401F1CFEB8DEC0FFD2FF11D8A
:10035000E35AFF4FF0829FB7F8940B8FEA89FB892D
:1003600080818062CFCFCF93DF93EC01888D88238B
:10037000B9F0AA89BB89E889F9898C9185FD03C008
:10038000808186FD0DC00FB607FCF7CF8C9185FFED
:10039000F2CF808185FFEDCFCE010E944401E9CFED
:1003A000DF91CF910895833081F028F4813099F066
:1003B0008230A9F008958730A9F08830C9F08430E0
:1003C000B1F4809180008F7D03C0809180008F7791
:1003D00080938000089584B58F7784BD089584B597
:1003E0008F7DFBCF8091B0008F778093B000089510
:1003F0008091B0008F7DF9CF1F93CF93DF93282F8B
:1004000030E0F901E458FF4F8491F901E255FF4FC4
:10041000D491F901E656FF4FC491CC23A9F0162FD1
:1004200081110E94D301EC2FF0E0EE0FFF1FEE5878
:10043000FF4FA591B4918FB7F894EC91111108C0BA
:10044000D095DE23DC938FBFDF91CF911F9108956C
:10045000DE2BF8CFCF93DF9390E0FC01E255FF4F06
:10046000249186569F4FFC0184918823C9F090E027
:10047000880F991FFC01E859FF4FA591B491FC0129
:10048000EE58FF4FC591D49161110DC09FB7F894FC
:100490008C91209582238C938881282328839FBF69
:1004A000DF91CF910895623051F49FB7F8943C9159
:1004B000822F809583238C93E8812E2BEFCF8FB7EB
:1004C000F894EC912E2B2C938FBFEACF8E3008F04E
:1004D0008E508770806480937C0080917A00806465
:1004E00080937A0080917A0086FDFCCF809178001D
:1004F0009091790008953FB7F894809160029091AF
:100500006102A0916202B091630226B5A89B05C06A
:100510002F3F19F00196A11DB11D3FBFBA2FA92F82
:10052000982F8827BC01CD01620F711D811D911D7F
:1005300042E0660F771F881F991F4A95D1F70895EB
:100540008F929F92AF92BF92CF92DF92EF92FF92E3
:100550004B015C010E947B026B017C010E947B02CB
:100560006C197D098E099F09683E734081059105CC
:10057000A8F321E0821A9108A108B10888EEC80EFC
:1005800083E0D81EE11CF11C81149104A104B10484
:1005900029F7FF90EF90DF90CF90BF90AF909F90A2
:1005A0008F900895CF92DF92EF92FF920F931F9357
:1005B000CF93DF93CDB7DEB7C054D1400FB6F894D8
:1005C000DEBF0FBECDBF2FB7F89480917602909119
:1005D0007702A0917802B09179022FBF4091630316
:1005E0005091640360916503709166038C019D01D5
:1005F000041B150B260B370BB901A801403D5740D2
:100600006105710590F480916B03C05CDE4F0FB6FD
:10061000F894DEBF0FBECDBFDF91CF911F910F9138
:10062000FF90EF90DF90CF900895809363039093B5
:100630006403A0936503B093660310925E03109267
:100640005D0310925C0310925B0310925A0362E008
:1006500080915F030E942A0261E070E080E090E0F8
:100660000E94A00261E080915F030E942A0260E084
:1006700080915F030E94FC0180916003855182306C
:1006800020F58BE291E10197F1F762E080915F0341
:100690000E942A0280916C0390E08230910538F02C
:1006A000880F991F880F991F05970197F1F7F89404
:1006B00080E00E948C006F3F7F4F8F4F9F4F61F40F
:1006C00010926B03789480E0A0CF64E170E080E04A
:1006D00090E00E94A002D9CF81E00E948C006F3F81
:1006E0007F4F8F4F9F4F61F38E010F5F1F4F6E0142
:1006F0008FEBC81A8EEFD80A780180E00E948C0038
:10070000F701608371838283938381E00E948C0070
:10071000F7016483758386839783F8E0EF0EF11CFD
:10072000EC14FD0451F7789430E020E0F801C0802B
:10073000D180E280F3804481558166817781FFEF2B
:10074000CF16DF06EF06FF0631F04F3F8FEF580759
:100750006807780719F410926B03B5CFF90183E0AD
:10076000F595E7958A95E1F7E65AFC4F8081880F69
:10077000C416D506E606F70610F180832F5F3F4FBB
:10078000085F1F4F2832310589F640915E032091A2
:100790005A0380915B03280F3327331F80915C033A
:1007A000280F311D80915D03820F932F911D992792
:1007B0004817190681F681E080936B0326CF81608C
:1007C000DCCF8F929F92AF92BF92FF920F931F93B5
:1007D000CF93DF93FC01F0808BE08F1508F44AC0C3
:1007E000828108E512E0081B110987FD1395000FAF
:1007F000111F000F111F8181C8E8D0E0C81BD1096B
:1008000087FDD395CC0FDD1FCC0FDD1F4E010D2EC4
:10081000000CAA08BB089801012E000C440B550BD4
:10082000281939094A095B09DB010E94741024EB7D
:1008300030E040E050E00E944A10820E931EA41E59
:10084000B51E8C169D062CF0E801801691060CF45E
:10085000E4012297CC0FDD1F2FB7F8948F2D90E085
:10086000FC01EE0FFF1FE80FF91FED5DFC4FD28377
:10087000C1832FBFDF91CF911F910F91FF90BF9048
:10088000AF909F908F9008951F93CF93DF93EC01CB
:10089000162F88818C3008F04EC061E0812F0E94B5
:1008A0002A028881282F30E0F901EE0FFF1FE20FA6
:1008B000F31FED5DFC4F1F736081607C612B6083D3
:1008C00019821A822CE0622F0E94F012829FB001DE
:1008D000112430E020E0AB01420F531FFA01EE0F6C
:1008E000FF1FE40FF51FED5DFC4F908196FD16C0D4
:1008F0002F5F3F4F2C30310571F781110FC01092DF
:10090000800082E080938100109285001092840024
:10091000B19A80916F00826080936F00E8818E2F82
:1009200090E0FC01EE0FFF1FE80FF91FED5DFC4F9B
:100930008081806480838881DF91CF911F910895A9
:1009400020911402260F3327331F21323105ECF496
:1009500020913802FC0190E080E0243069F082E0D0
:100960000895A09114022191AC014C505E4FA40F48
:10097000B52FB11D2C930196861798F38091140220
:10098000680F6093140280E0089581E0089510924A
:10099000380281E080933A021092390261E082E1EC
:1009A0000E94FC0161E083E10E94FC01E9EBF0E0C0
:1009B00080818E7F808380818D7F808388E4809397
:1009C000B80085E48093BC000895CF93DF9391E055
:1009D0009093F3018823B9F0C091B800D091BA0088
:1009E0008091BC008A7B8093BC0060E082E10E9421
:1009F000FC0160E083E10E94FC010E94C704D093E7
:100A0000BA00C093B800DF91CF9108950895E091A6
:100A10006B0280916A02E81730F4F0E0E253FE4F77
:100A2000808190E008958FEF9FEF089590916B0281
:100A300080916A022FEF3FEF981748F4E92FF0E01A
:100A4000E253FE4F208130E09F5F90936B02C9011B
:100A5000089580916A0290916B02891B990B089509
:100A6000CF92DF92EF92FF920F931F93CF93DF937A
:100A70007C01CB018A012091CD01222389F0EB0179
:100A80006B01C40ED51ECC15DD0569F06991D70147
:100A9000ED91FC910190F081E02DC7010995F3CF14
:100AA000642F0E94A004C801DF91CF911F910F9184
:100AB000FF90EF90DF90CF900895CF93DF931F9238
:100AC000CDB7DEB769832091CD012223F9F02091C3
:100AD0006802203258F021E030E0FC0133832283A9
:100AE00090E080E00F90DF91CF91089580916902AE
:100AF000E82FF0E0E355FE4F998190838F5F80935C
:100B000069028093680281E090E0ECCF61E0CE0161
:100B100001960E94A004F7CFCF92DF92EF92FF924E
:100B20000F931F93CF93DF93FC01C48121E02093A7
:100B3000CD01C093AC0110926902109268028385C6
:100B4000682B87E193E00E945D05D0916802D13265
:100B500008F092C00E947B026B017C0180913802F8
:100B6000811165C082E08093380281E080933A026F
:100B70008FEF8093370210925C02D0935B02ADEA54
:100B8000B1E0EBE3F2E080E0D81385C010925D02A3
:100B900080915D02CC0FC82BC0935D028091390219
:100BA000813009F07CC0109239020E947B026B01F7
:100BB0007C0180915D028093BB008091EF01909158
:100BC000F001A091F101B091F201892B8A2B8B2BBE
:100BD00099F00E947B020091EF011091F0012091A9
:100BE000F1013091F2016C197D098E099F090617F8
:100BF000170728073907E0F18091BC0083FDD9CFA2
:100C000085EC8093BC000E947B026B017C0180918B
:100C10003802823009F445C0809137028F3F61F17C
:100C200080913702803241F18091370225C0809156
:100C3000EF019091F001A091F101B091F201892BA7
:100C40008A2B8B2B09F48ACF0E947B020091EF0143
:100C50001091F0012091F1013091F2016C197D09A0
:100C60008E099F09061717072807390708F076CF5E
:100C70008091EE010E94E5041092690210926802D0
:100C80001092CD01DF91CF911F910F91FF90EF90C6
:100C9000DF90CF9008959D9191938F5F75CF85EEF2
:100CA000B0CF8091EF019091F001A091F101B0914E
:100CB000F201892B8A2B8B2B09F4A9CF0E947B028E
:100CC0000091EF011091F0012091F1013091F201BA
:100CD0006C197D098E099F09061717072807390720
:100CE00008F095CFC5CF089590E080E008950F9368
:100CF0001F93CF938C01C62F0E948C056C2F6460CC
:100D0000C8010E948C056C2F6B7FC8010E948C0566
:100D100083EC90E00197F1F7CF911F910F91089527
:100D20000F931F93CF93DF938C01D62FC42F607F37
:100D3000642B0E94770680E1D89FB00111246C2BB0
:100D4000C801DF91CF911F910F910C947706CF933B
:100D5000DF93823028F090914D03986090934D037B
:100D60008093500362E370E080E090E00E94A00274
:100D70006091530388E493E00E948C0568EE73E071
:100D800080E090E00E94A00260E388E493E00E948B
:100D90007706CBE4D6E4CE010197F1F760E388E46F
:100DA00093E00E9477062197F1F760E388E493E0EF
:100DB0000E94770683E592E00197F1F760E288E40C
:100DC00093E00E94770660914D03606240E088E402
:100DD00093E00E94900684E080934E0340E06CE034
:100DE00088E493E00E94900640E061E088E493E0AC
:100DF0000E949006CBE3DFE1CE010197F1F782E09C
:100E000080934F0340E066E088E493E00E94900600
:100E100040E062E088E493E00E9490062197F1F7B9
:100E2000DF91CF910895CF93DF93CDB7DEB72897A9
:100E30000FB6F894DEBF0FBECDBF98E0E2E0F1E060
:100E4000DE01119601900D929A95E1F79091500371
:100E5000961708F46FEF262F30E0220F331F41E082
:100E600050E04C0F5D1F240F351FF9016081680FA2
:100E7000606840E088E493E028960FB6F894DEBFFF
:100E80000FBECDBFDF91CF910C94900641E00E9440
:100E9000900681E090E00895FB0101900020E9F7C1
:100EA0003197AF01461B570BDC01ED91FC9102809D
:100EB000F381E02D09948F929F92AF92BF92EF92AF
:100EC000FF920F931F93CF93DF93CDB7DEB7A19718
:100ED0000FB6F894DEBF0FBECDBF7C01FA01CB0187
:100EE00019A2223008F42AE08E010F5D1F4F822ED6
:100EF000912CB12CA12CBF01A50194010E947C1062
:100F0000F901CA016A300CF5605DD8016E938D015C
:100F1000232B242B252B79F790E080E0109721F0EC
:100F2000BD01C7010E944C07A1960FB6F894DEBF21
:100F30000FBECDBFDF91CF911F910F91FF90EF902A
:100F4000BF90AF909F908F900895695CDECFCF9255
:100F5000DF92EF92FF92CF93DF936B017C016DE202
:100F60008AE792E00E946601EC0144275527BA0106
:100F70004C195D096E097F092AE08AE792E00E9418
:100F80005B078C0F9D1FDF91CF91FF90EF90DF905B
:100F9000CF900895CF93DF93AC01990F660B770B39
:100FA00077FF10C0CB01BA010E94A707EC016AE3EA
:100FB00071E08AE792E00E944C078C0F9D1FDF9141
:100FC000CF9108952AE08AE792E00E945B07EECF76
:100FD0002F923F924F925F926F927F928F929F9249
:100FE000AF92BF92CF92DF92EF92FF921F93CF9377
:100FF000DF93EC016A017B01722EAB019601CB01FC
:10100000B6010E94EB126DE371E0811126C046012A
:101010005701E894B7F82FEF3FEF4FE75FE7C501BF
:10102000B4010E94EB1281110CC02FEF3FEF4FE78C
:101030005FE7C501B4010E941A1161E471E018165E
:1010400064F02FEF3FEF4FE75FE4C701B6010E9466
:1010500079121816B4F465E471E0CE01DF91CF91F6
:101060001F91FF90EF90DF90CF90BF90AF909F9037
:101070008F907F906F905F904F903F902F900C9447
:101080004C072FEF3FEF4FE75FECC701B6010E941F
:101090001A1187FDE0CF20E030E0A901C701B601B9
:1010A0000E941A11312C212C87FF0DC0E881F98193
:1010B0000190F081E02D6DE2CE0109951C01F7FA57
:1010C000F094F7F8F09410E060E070E080E09FE3C7
:1010D000711641F020E030E040E251E40E941F111F
:1010E0001F5FF6CFA70196010E94AE102B013C01B5
:1010F0000E9498114B015C012AE0BC01A401CE01C1
:101100000E945B077C01E20CF31C1123E1F1C50195
:10111000B4010E94C7119B01AC01C301B2010E943E
:10112000AD104B015C01E881F9810190F081E02D67
:101130006EE2CE010995E80EF91E115020F120E073
:1011400030E040E251E4C501B4010E947E122B015F
:101150003C010E9498114B01B12CA12C2AE0B50151
:10116000A401CE010E945B07E80EF91EC501B4017F
:101170000E94C7119B01AC01C301B2010E94AD10D6
:101180004B015C01DACFC701DF91CF911F91FF9036
:10119000EF90DF90CF90BF90AF909F908F907F9017
:1011A0006F905F904F903F902F9008950C944C0754
:1011B000CF92DF92EF92FF928EE00E946602BC0116
:1011C000990F880B990B0E94C91120E030E040EA8A
:1011D00050E40E947E1220E030E040E85AE30E9492
:1011E0007E1226E636E646EE5FE30E94AE106B0105
:1011F0007C0169E471E08AE792E00E94D60822E06F
:10120000B701A6018AE792E00E94E8076AE371E06D
:101210008AE792E00E944C0760E089E00E94130791
:101220006FE471E088E493E00E94D60822E0B70101
:10123000A60188E493E00E94E80764E670E080E09D
:1012400090E00E94A00220E030E040EA50E4C701B4
:10125000B6010E947912181684F461E080E00E94C1
:10126000130763E571E088E493E00E94D60864EF19
:1012700071E080E090E00E94A00220E030E040EACF
:1012800050E4C701B6010E941A1187FF10C061E047
:1012900080E00E94130761E671E088E493E00E9419
:1012A000D60864EF71E080E090E00E94A00264EF55
:1012B00071E080E090E0FF90EF90DF90CF900C9491
:1012C000A00285ED8093BC008091EF019091F00128
:1012D000A091F101B091F2010796A11DB11D23E08B
:1012E000B695A795979587952A95D1F72091BC003B
:1012F00024FD03C01092380208954091EF015091EF
:10130000F0016091F1017091F201452B462B472BC2
:1013100069F30097A105B10541F02AE22A95F1F79A
:1013200000C00197A109B109E1CF8091EE010C94B1
:10133000E5041F920F920FB60F9211242F933F9343
:101340004F935F936F937F938F939F93AF93BF93CD
:10135000EF93FF938AE792E00E944401FF91EF919F
:10136000BF91AF919F918F917F916F915F914F91BD
:101370003F912F910F900FBE0F901F9018951F92C5
:101380000F920FB60F9211242F938F939F93EF9389
:10139000FF93E0918A02F0918B028081E0919002AC
:1013A000F091910282FD1BC09081809193028F5F2A
:1013B0008F7320919402821741F0E0919302F0E044
:1013C000E658FD4F958F80939302FF91EF919F9187
:1013D0008F912F910F900FBE0F901F9018958081C5
:1013E000F4CF1F920F920FB60F9211242F933F93B9
:1013F0008F939F93AF93BF938091760290917702E2
:10140000A0917802B091790230915F0223E0230F1E
:101410002D3758F50196A11DB11D20935F028093D1
:10142000760290937702A0937802B093790280912C
:10143000600290916102A0916202B09163020196F4
:10144000A11DB11D8093600290936102A09362027E
:10145000B0936302BF91AF919F918F913F912F9174
:101460000F900FBE0F901F90189526E8230F02963D
:10147000A11DB11DD2CF1F920F920FB60F92112452
:101480002F933F934F935F936F937F938F939F938C
:10149000AF93BF93CF93DF93EF93FF9380915E025F
:1014A000C0914703D0E087FF24C0109285001092BE
:1014B000840080915E028F5F80935E0280915E0265
:1014C000082E000C990B8C179D0724F480915E0266
:1014D0008C30C4F180918400909185000496803412
:1014E0009C4908F47AC0809184009091850004960C
:1014F00076C080915E02082E000C990B8C179D0718
:10150000C4F6E0915E028E2FEE0F990BFC01EE0FF8
:10151000FF1FE80FF91FED5DFC4F808186FFC9CFEB
:10152000E0915E028E2FEE0F990BFC01EE0FFF1F74
:10153000E80FF91FED5DFC4F808160E08F730E9422
:10154000FC01B7CF2091840030918500E0915E02CC
:101550008E2FEE0F990BFC01EE0FFF1FE80FF91F06
:10156000ED5DFC4F81819281820F931F90938900E2
:1015700080938800E0915E028E2FEE0F990BFC01A4
:10158000EE0FFF1FE80FF91FED5DFC4F808186FF16
:1015900011C0E0915E028E2FEE0F990BFC01EE0F51
:1015A000FF1FE80FF91FED5DFC4F808161E08F7335
:1015B0000E94FC01FF91EF91DF91CF91BF91AF911C
:1015C0009F918F917F916F915F914F913F912F915B
:1015D0000F900FBE0F901F90189580E49CE9909398
:1015E0008900809388008FEF80935E02E3CF1F9283
:1015F0000F920FB60F9211242F933F934F935F9347
:101600006F937F938F939F93AF93BF93EF93FF93CA
:101610008091B900887F803609F44AC0F0F588329D
:1016200009F4A7C018F5803109F49BC0B8F48823E9
:1016300009F4F9C0883009F494C0FF91EF91BF918B
:10164000AF919F918F917F916F915F914F913F915A
:101650002F910F900FBE0F901F901895883109F4AD
:1016600088C0803251F78093370214C0803409F467
:101670009DC040F48033B9F38833F9F68093370284
:1016800085ECB0C0803509F485C0883509F496C072
:10169000883499F60E946109D0CF883909F48CC04A
:1016A00038F5883729F050F4883611F0803729F65C
:1016B00083E0809338021092360257C0883809F4CC
:1016C0007BC0803919F0803809F0B7CF809136029D
:1016D000803208F071C0E091360281E08E0F809375
:1016E00036028091BB00F0E0EA5EFD4F80833DC092
:1016F000803B39F0E0F4803A09F479C0883A09F087
:101700009CCF84E08093380210921502109214024C
:10171000E0916602F09167020995809114028111AF
:101720000FC081E0809314021092F40109C0803C44
:1017300009F4A6CF883C09F4A3CF883B09F07DCFFC
:10174000E091150281E08E0F80931502F0E0EC50DD
:10175000FE4F80818093BB0090911502809114020E
:1017600029C080915D028093BB0085EC8093BC0012
:1017700064CF90915C0280915B02981758F5E091DC
:101780005C0281E08E0F80935C02F0E0E55CFD4F2F
:101790008081E9CFE0915C0281E08E0F80935C0252
:1017A0008091BB00F0E0E55CFD4F808390915C028E
:1017B00080915B029817C8F285E8D8CFE0915C026F
:1017C00081E08E0F80935C028091BB00F0E0E55CCD
:1017D000FD4F808380913A0281115CCF81E080933C
:1017E000390284EA8093BC001092380226CF85EC3F
:1017F0008093BC001092380280913602803230F41F
:10180000E0913602F0E0EA5EFD4F10826091360210
:1018100070E0E0916402F091650286E192E0099542
:10182000109236020ACF1092370234CFCF92DF9255
:10183000EF92FF920F931F93E82FF92F05C00150ED
:1018400011092109310961F1908196239417B9F3A7
:1018500005C0015011092109310911F19081962328
:101860009413F7CFC12CD12CE12CF12C0AC08FEFAF
:10187000C81AD80AE80AF80A0C151D052E053F05F6
:1018800079F080818623841791F36C2D7D2D8E2D28
:101890009F2D1F910F91FF90EF90DF90CF900895B3
:1018A00060E070E080E090E01F910F91FF90EF907A
:1018B000DF90CF90089510927D0210927C0288EE06
:1018C00093E0A0E0B0E080937E0290937F02A0932B
:1018D0008002B09381022EE031E030937B022093AE
:1018E0007A0225EC30E0309387022093860224ECC4
:1018F00030E0309389022093880220EC30E030936E
:101900008B0220938A0221EC30E030938D022093E9
:101910008C0222EC30E030938F0220938E0226EC72
:1019200030E0309391022093900210929302109233
:101930009402109295021092960210921A0310923D
:10194000190380931B0390931C03A0931D03B09372
:101950001E0380E291E0909318038093170389E0BF
:1019600080935F038BE080936003E7EBF0E0E4910A
:10197000E0936103E3EAF0E0E491E093620380E83E
:101980009EE3A0E0B0E08093670390936803A09388
:101990006903B0936A03809147038C30F0F591E0BE
:1019A000980F909347038093570390E0FC01EE0F4C
:1019B000FF1FE80FF91FED5DFC4F88EB9BE0928362
:1019C0008183809147038C3060F591E0980F90936C
:1019D00047038093540390E0FC01EE0FFF1FE80FD4
:1019E000F91FED5DFC4F88EB9BE0928381831092A1
:1019F0004B0310924A0382E391E090934903809352
:101A0000480387E280934C0380E18093510382E096
:101A1000809352031092530308958FEF80935703DE
:101A2000D0CF8FEF80935403E2CF789484B5826057
:101A300084BD84B5816084BD85B5826085BD85B572
:101A4000816085BD80916E00816080936E001092F0
:101A5000810080918100826080938100809181006B
:101A600081608093810080918000816080938000FC
:101A70008091B10084608093B1008091B00081605A
:101A80008093B00080917A00846080937A00809186
:101A90007A00826080937A0080917A0081608093DE
:101AA0007A0080917A00806880937A001092C10059
:101AB000E0918A02F0918B0282E08083E0918602BD
:101AC000F09187021082E0918802F09189028FECF8
:101AD000808310929202E0918E02F0918F0286E054
:101AE0008083E0918C02F0918D02808180618083FF
:101AF000E0918C02F0918D02808188608083E0917A
:101B00008C02F0918D02808180688083E0918C024C
:101B1000F0918D0280818F7D808360E08BE00E9458
:101B20002A0261E085E00E942A0261E086E00E94CC
:101B30002A0261E087E00E942A0261E082E00E94BE
:101B40002A0260E083E00E942A0260E08FE00E94A7
:101B50002A0261E084E00E942A026AE070E087E5E0
:101B600093E00E9444046CE070E084E593E00E94FE
:101B7000440462E080915F030E942A022FB7F89428
:101B80008091760290917702A0917802B0917902CB
:101B90002FBF805D9740A109B109809363039093A3
:101BA0006403A0936503B093660387E380936C039B
:101BB00010926B0210926A021092690210926802EF
:101BC0000E94C70484EC90E09093670280936602C1
:101BD00085EC90E0909365028093640210924D032F
:101BE000809152030E94A70682E00E94A70688E027
:101BF0008093530360E088E493E00E948C05CBE37C
:101C0000DFE143E0E42EF12C53E2C52ED12C61EB51
:101C1000262E60E0362E7DE9A72E70E0B72EE0E09C
:101C20008E2EE0E09E2E8EE00E946602E7E8F0E055
:101C30008491E9EBF0E07490E5EAF0E0149111236F
:101C400009F43DC081110E94D301E12FF0E0EE0FB5
:101C5000FF1FE057FF4FA591B4918C91782291E03E
:101C600080E009F490E090937402809375028FE015
:101C70000E946602909373028093720261E771E0A2
:101C80008AE792E00E94D6088091720290917302D6
:101C90000E94CA070E94D2020E94D202882341F009
:101CA000809160038C3009F4B5C160F48B3019F178
:101CB000412C512C90EC692E9FE7792E46C090E084
:101CC00080E0D1CF8551823098F710915C03612F6D
:101CD00070E0762F662766277F7780915D03682BFB
:101CE00090E080E00E94C7112DEC3CEC4CEC5DE3F1
:101CF0000E947E12ABC160915C0370E090E080E0D6
:101D00000E94C7112B013C0110915D0317FF0AC00F
:101D1000AC019B0160E070E080E89FEB0E94AD1099
:101D20002B013C011F70612F70E090E080E00E9469
:101D3000C9112DEC3CEC4CEC5DE30E947E12A3013A
:101D400092010E94AE102B013C0140E061E088E46A
:101D500093E00E949006CE010197F1F760E080E0E9
:101D60000E9413076AE771E088E493E00E94D608B6
:101D700022E0B301A20188E493E00E94E8076DE746
:101D800071E08AE792E00E94D60822E0B301A20146
:101D90008AE792E00E94E8076AE371E08AE792E04E
:101DA0000E944C0720E030E044E152E4C301B2015C
:101DB0000E9479121816A4F40E94D80861E086E007
:101DC0000E94FC0160E085E00E94FC0161E080E08F
:101DD0000E94130762E871E088E493E00E94D6084D
:101DE00020E030E040E052E4C301B2010E941A1149
:101DF00087FF0AC00E94D80860E086E00E94FC01CC
:101E000061E085E00E94FC0180917402909175026E
:101E1000892B31F40E94D80860E087E00E94FC0121
:101E200080917402909175020197A1F461E087E0BE
:101E30000E94FC0161E080E00E9413076FE871E0FE
:101E400088E493E00E94D6086CED75E080E090E0B5
:101E50000E94A00280917202909173028B3F9105C3
:101E600034F00E94D80860E084E00E94FC01809178
:101E70007202909173028A3F910534F40E94D8084F
:101E800061E084E00E94FC0160E082E00E94FC01CD
:101E9000C7010197F1F761E082E00E94FC01C601F1
:101EA0000197F1F760E082E00E94FC01F10164918A
:101EB000F5018491E82FF0E0EE0FFF1FE057FF4F90
:101EC0008591949100E412E42FE030E0462F0E94C7
:101ED000160C611571058105910529F06F5F7F4F23
:101EE0008F4F9F4F9F700E94C91126E933E44BE04A
:101EF0005DE30E947E1220E030E040E05FE30E945C
:101F00007E120E94911160936E0270936F02809313
:101F10007002909371026DE971E08AE792E00E948D
:101F2000D60840916E0250916F02609170027091DC
:101F3000710277FF94C0CB01BA010E94A7076AE340
:101F400071E08AE792E00E944C0767EA71E08AE755
:101F500092E00E94D60880916E0290916F02A0914B
:101F60007002B09171020797A105B10544F40E9477
:101F7000D8086EE170E087E593E00E94E10380916C
:101F80006E0290916F02A0917002B0917102089759
:101F9000A105B10574F00E94D80864E670E087E5F9
:101FA00093E00E94E10360ED77E080E090E00E9422
:101FB000A0020E94D80880910001909101010E9426
:101FC000CA0720916C0230916D02C901019690936D
:101FD0006D0280936C0230930101209300010B97F6
:101FE0000CF043C06EE770E084E593E00E94E103EB
:101FF00064EF71E080E090E00E94A00281149104FF
:1020000009F411CE0E943001882309F40CCE0E94FD
:10201000000009CE10915C03612F70E090E080E039
:102020000E94C7112B013C0160915D036F7070E04D
:1020300090E080E00E94C9112DEC3CEC4CEC5DE39B
:102040000E947E12A30192010E94AE102B013C015E
:1020500017FF7BCE77FA709477F8709476CE2AE0EB
:102060008AE792E00E945B076ACF70E060E084E557
:1020700093E00E94E10310926D0210926C021092A4
:1020800001011092000168EE73E080E090E00E9490
:10209000A002AECF052E97FB1EF400940E946110A3
:1020A00057FD07D00E947C1007FC03D04EF40C941F
:1020B000611050954095309521953F4F4F4F5F4FA0
:1020C000089590958095709561957F4F8F4F9F4FA4
:1020D00008950E949E10A59F900DB49F900DA49FFF
:1020E000800D911D11240895B7FF0C9469100E9472
:1020F0006910821B930B0895A1E21A2EAA1BBB1B29
:10210000FD010DC0AA1FBB1FEE1FFF1FA217B307C3
:10211000E407F50720F0A21BB30BE40BF50B661FD9
:10212000771F881F991F1A9469F76095709580959D
:1021300090959B01AC01BD01CF010895A29FB00114
:10214000B39FC001A39F700D811D1124911DB29FEB
:10215000700D811D1124911D08955058BB27AA2789
:102160000E94C5100C943F120E94311238F00E9458
:10217000381220F039F49F3F19F426F40C942E12F3
:102180000EF4E095E7FB0C942812E92F0E94501200
:1021900058F3BA17620773078407950720F079F49C
:1021A000A6F50C9472120EF4E0950B2EBA2FA02D0A
:1021B0000B01B90190010C01CA01A0011124FF27F4
:1021C000591B99F0593F50F4503E68F11A16F040EF
:1021D000A22F232F342F4427585FF3CF46953795EE
:1021E0002795A795F0405395C9F77EF41F16BA0BB3
:1021F000620B730B840BBAF09150A1F0FF0FBB1F61
:10220000661F771F881FC2F70EC0BA0F621F731FA9
:10221000841F48F4879577956795B795F7959E3F06
:1022200008F0B0CF9395880F08F09927EE0F979597
:10223000879508950E94041208F481E008950E9491
:1022400033110C943F120E94381258F00E94311240
:1022500040F029F45F3F29F00C94281251110C949E
:1022600073120C942E120E94501268F39923B1F34A
:10227000552391F3951B550BBB27AA2762177307AC
:10228000840738F09F5F5F4F220F331F441FAA1F40
:10229000A9F335D00E2E3AF0E0E832D091505040FC
:1022A000E695001CCAF72BD0FE2F29D0660F771FAA
:1022B000881FBB1F261737074807AB07B0E809F090
:1022C000BB0B802DBF01FF2793585F4F3AF09E3F15
:1022D000510578F00C9428120C9473125F3FE4F3CC
:1022E000983ED4F3869577956795B795F7959F5F58
:1022F000C9F7880F911D9695879597F90895E1E0A4
:10230000660F771F881FBB1F621773078407BA0702
:1023100020F0621B730B840BBA0BEE1F88F7E0955D
:1023200008950E9498116894B1110C947312089545
:102330000E94581288F09F5798F0B92F9927B751EB
:10234000B0F0E1F0660F771F881F991F1AF0BA9559
:10235000C9F714C0B13091F00E947212B1E0089533
:102360000C947212672F782F8827B85F39F0B93F25
:10237000CCF3869577956795B395D9F73EF490950C
:102380008095709561957F4F8F4F9F4F0895E8948A
:1023900009C097FB3EF490958095709561957F4FAD
:1023A0008F4F9F4F9923A9F0F92F96E9BB2793955B
:1023B000F695879577956795B795F111F8CFFAF46B
:1023C000BB0F11F460FF1BC06F5F7F4F8F4F9F4F9C
:1023D00016C0882311F096E911C0772321F09EE8FA
:1023E000872F762F05C0662371F096E8862F70E060
:1023F00060E02AF09A95660F771F881FDAF7880F3A
:102400009695879597F90895990F0008550FAA0B8F
:10241000E0E8FEEF16161706E807F907C0F01216F7
:102420001306E407F50798F0621B730B840B950BFA
:1024300039F40A2661F0232B242B252B21F408954F
:102440000A2609F4A140A6958FEF811D811D0895EC
:1024500097F99F6780E870E060E008959FEF80EC57
:10246000089500240A9416161706180609060895FA
:1024700000240A9412161306140605060895092E60
:102480000394000C11F4882352F0BB0F40F4BF2BCF
:1024900011F460FF04C06F5F7F4F8F4F9F4F08950F
:1024A00057FD9058440F551F59F05F3F71F0479505
:1024B000880F97FB991F61F09F3F79F087950895EA
:1024C000121613061406551FF2CF4695F1DF08C009
:1024D000161617061806991FF1CF86957105610526
:1024E00008940895E894BB2766277727CB0197F9CE
:1024F00008950E94041208F48FEF08950E9491122B
:102500000C943F120E94311238F00E94381220F0D1
:10251000952311F00C9428120C942E1211240C9473
:1025200073120E94501270F3959FC1F3950F50E003
:10253000551F629FF001729FBB27F00DB11D639F75
:10254000AA27F00DB11DAA1F649F6627B00DA11D1B
:10255000661F829F2227B00DA11D621F739FB00DC1
:10256000A11D621F839FA00D611D221F749F332731
:10257000A00D611D231F849F600D211D822F762FCA
:102580006A2F11249F5750409AF0F1F088234AF0A7
:10259000EE0FFF1FBB1F661F771F881F9150504013
:1025A000A9F79E3F510580F00C9428120C947312E9
:1025B0005F3FE4F3983ED4F3869577956795B7959A
:1025C000F795E7959F5FC1F7FE2B880F911D9695B4
:1025D000879597F908950E940412880B990B089526
:1025E000991B79E004C0991F961708F0961B881F65
:1025F0007A95C9F780950895EE0FFF1F0590F49125
:08260000E02D0994F894FFCFCE
:1026080001000000400014005400000000006601B2
:10261800C600F300B3012401020116010000000006
:102628005D05300574060605290516050705000031
:1026380000004607C600740673060D0A006E616E38
:1026480000696E66006F7666007048203D20007055
:10265800483A005068206C766C204E6F726D616C41
:10266800005068206C766C2061626E6F726D616CD0
:10267800006D6F69737475726500543A0074656D06
:10268800700054656D70204973204869676800467A
:1026980049524520446574656374656400646973D0
:0C26A80074616E6365200020636D00000B
:00000001FF
